{
    "contractName": "ChocoToken",
    "abi": [
        {
            "constant": true,
            "inputs": [],
            "name": "name",
            "outputs": [
                {
                    "name": "",
                    "type": "string"
                }
            ],
            "payable": false,
            "stateMutability": "view",
            "type": "function",
            "signature": "0x06fdde03"
        },
        {
            "constant": true,
            "inputs": [],
            "name": "totalSupply",
            "outputs": [
                {
                    "name": "",
                    "type": "uint256"
                }
            ],
            "payable": false,
            "stateMutability": "view",
            "type": "function",
            "signature": "0x18160ddd"
        },
        {
            "constant": true,
            "inputs": [],
            "name": "priceOfToken",
            "outputs": [
                {
                    "name": "",
                    "type": "string"
                }
            ],
            "payable": false,
            "stateMutability": "view",
            "type": "function",
            "signature": "0x1b9cbdfb"
        },
        {
            "constant": true,
            "inputs": [],
            "name": "decimals",
            "outputs": [
                {
                    "name": "",
                    "type": "uint8"
                }
            ],
            "payable": false,
            "stateMutability": "view",
            "type": "function",
            "signature": "0x313ce567"
        },
        {
            "constant": true,
            "inputs": [],
            "name": "standard",
            "outputs": [
                {
                    "name": "",
                    "type": "string"
                }
            ],
            "payable": false,
            "stateMutability": "view",
            "type": "function",
            "signature": "0x5a3b7e42"
        },
        {
            "constant": true,
            "inputs": [
                {
                    "name": "",
                    "type": "address"
                }
            ],
            "name": "balanceOf",
            "outputs": [
                {
                    "name": "",
                    "type": "uint256"
                }
            ],
            "payable": false,
            "stateMutability": "view",
            "type": "function",
            "signature": "0x70a08231"
        },
        {
            "constant": true,
            "inputs": [],
            "name": "symbol",
            "outputs": [
                {
                    "name": "",
                    "type": "string"
                }
            ],
            "payable": false,
            "stateMutability": "view",
            "type": "function",
            "signature": "0x95d89b41"
        },
        {
            "constant": true,
            "inputs": [
                {
                    "name": "",
                    "type": "address"
                },
                {
                    "name": "",
                    "type": "address"
                }
            ],
            "name": "allowance",
            "outputs": [
                {
                    "name": "",
                    "type": "uint256"
                }
            ],
            "payable": false,
            "stateMutability": "view",
            "type": "function",
            "signature": "0xdd62ed3e"
        },
        {
            "inputs": [],
            "payable": false,
            "stateMutability": "nonpayable",
            "type": "constructor",
            "signature": "constructor"
        },
        {
            "anonymous": false,
            "inputs": [
                {
                    "indexed": true,
                    "name": "_from",
                    "type": "address"
                },
                {
                    "indexed": true,
                    "name": "_to",
                    "type": "address"
                },
                {
                    "indexed": false,
                    "name": "_value",
                    "type": "uint256"
                }
            ],
            "name": "Transfer",
            "type": "event",
            "signature": "0xddf252ad1be2c89b69c2b068fc378daa952ba7f163c4a11628f55a4df523b3ef"
        },
        {
            "anonymous": false,
            "inputs": [
                {
                    "indexed": true,
                    "name": "_owner",
                    "type": "address"
                },
                {
                    "indexed": true,
                    "name": "_spender",
                    "type": "address"
                },
                {
                    "indexed": false,
                    "name": "_value",
                    "type": "uint256"
                }
            ],
            "name": "Approval",
            "type": "event",
            "signature": "0x8c5be1e5ebec7d5bd14f71427d1e84f3dd0314c0f7b2291e5b200ac8c7c3b925"
        },
        {
            "constant": false,
            "inputs": [
                {
                    "name": "_to",
                    "type": "address"
                },
                {
                    "name": "_value",
                    "type": "uint256"
                }
            ],
            "name": "transfer",
            "outputs": [
                {
                    "name": "success",
                    "type": "bool"
                }
            ],
            "payable": false,
            "stateMutability": "nonpayable",
            "type": "function",
            "signature": "0xa9059cbb"
        },
        {
            "constant": false,
            "inputs": [
                {
                    "name": "_spender",
                    "type": "address"
                },
                {
                    "name": "_value",
                    "type": "uint256"
                }
            ],
            "name": "approve",
            "outputs": [
                {
                    "name": "success",
                    "type": "bool"
                }
            ],
            "payable": false,
            "stateMutability": "nonpayable",
            "type": "function",
            "signature": "0x095ea7b3"
        },
        {
            "constant": false,
            "inputs": [
                {
                    "name": "_from",
                    "type": "address"
                },
                {
                    "name": "_to",
                    "type": "address"
                },
                {
                    "name": "_value",
                    "type": "uint256"
                }
            ],
            "name": "transferFrom",
            "outputs": [
                {
                    "name": "success",
                    "type": "bool"
                }
            ],
            "payable": false,
            "stateMutability": "nonpayable",
            "type": "function",
            "signature": "0x23b872dd"
        }
    ],
    "bytecode": "0x60c0604052600a60808190527f43686f636f546f6b656e0000000000000000000000000000000000000000000060a090815261003e9160009190610146565b506040805180820190915260048082527f43544f4b00000000000000000000000000000000000000000000000000000000602090920191825261008391600191610146565b5060408051808201909152600f8082527f43686f636f546f6b656e2076302e39000000000000000000000000000000000060209092019182526100c891600291610146565b5060408051808201909152600b8082527fe282ac20302e3030303038000000000000000000000000000000000000000000602090920191825261010d91600391610146565b5064174876e8006004556005805460ff1916905534801561012d57600080fd5b50600454336000908152600660205260409020556101e1565b828054600181600116156101000203166002900490600052602060002090601f016020900481019282601f1061018757805160ff19168380011785556101b4565b828001600101855582156101b4579182015b828111156101b4578251825591602001919060010190610199565b506101c09291506101c4565b5090565b6101de91905b808211156101c057600081556001016101ca565b90565b6106d9806101f06000396000f3fe6080604052600436106100ae5763ffffffff7c010000000000000000000000000000000000000000000000000000000060003504166306fdde0381146100b3578063095ea7b31461013d57806318160ddd1461018a5780631b9cbdfb146101b157806323b872dd146101c6578063313ce567146102095780635a3b7e421461023457806370a082311461024957806395d89b411461027c578063a9059cbb14610291578063dd62ed3e146102ca575b600080fd5b3480156100bf57600080fd5b506100c8610305565b6040805160208082528351818301528351919283929083019185019080838360005b838110156101025781810151838201526020016100ea565b50505050905090810190601f16801561012f5780820380516001836020036101000a031916815260200191505b509250505060405180910390f35b34801561014957600080fd5b506101766004803603604081101561016057600080fd5b50600160a060020a038135169060200135610393565b604080519115158252519081900360200190f35b34801561019657600080fd5b5061019f6103f9565b60408051918252519081900360200190f35b3480156101bd57600080fd5b506100c86103ff565b3480156101d257600080fd5b50610176600480360360608110156101e957600080fd5b50600160a060020a0381358116916020810135909116906040013561045a565b34801561021557600080fd5b5061021e610539565b6040805160ff9092168252519081900360200190f35b34801561024057600080fd5b506100c8610542565b34801561025557600080fd5b5061019f6004803603602081101561026c57600080fd5b5035600160a060020a031661059a565b34801561028857600080fd5b506100c86105ac565b34801561029d57600080fd5b50610176600480360360408110156102b457600080fd5b50600160a060020a038135169060200135610606565b3480156102d657600080fd5b5061019f600480360360408110156102ed57600080fd5b50600160a060020a0381358116916020013516610690565b6000805460408051602060026001851615610100026000190190941693909304601f8101849004840282018401909252818152929183018282801561038b5780601f106103605761010080835404028352916020019161038b565b820191906000526020600020905b81548152906001019060200180831161036e57829003601f168201915b505050505081565b336000818152600760209081526040808320600160a060020a038716808552908352818420869055815186815291519394909390927f8c5be1e5ebec7d5bd14f71427d1e84f3dd0314c0f7b2291e5b200ac8c7c3b925928290030190a350600192915050565b60045481565b6003805460408051602060026001851615610100026000190190941693909304601f8101849004840282018401909252818152929183018282801561038b5780601f106103605761010080835404028352916020019161038b565b600160a060020a03831660009081526006602052604081205482111561047f57600080fd5b600160a060020a03841660009081526007602090815260408083203384529091529020548211156104af57600080fd5b600160a060020a0380851660008181526006602090815260408083208054889003905593871680835284832080548801905583835260078252848320338452825291849020805487900390558351868152935191937fddf252ad1be2c89b69c2b068fc378daa952ba7f163c4a11628f55a4df523b3ef929081900390910190a35060019392505050565b60055460ff1681565b6002805460408051602060018416156101000260001901909316849004601f8101849004840282018401909252818152929183018282801561038b5780601f106103605761010080835404028352916020019161038b565b60066020526000908152604090205481565b60018054604080516020600284861615610100026000190190941693909304601f8101849004840282018401909252818152929183018282801561038b5780601f106103605761010080835404028352916020019161038b565b3360009081526006602052604081205482111561062257600080fd5b33600081815260066020908152604080832080548790039055600160a060020a03871680845292819020805487019055805186815290519293927fddf252ad1be2c89b69c2b068fc378daa952ba7f163c4a11628f55a4df523b3ef929181900390910190a350600192915050565b60076020908152600092835260408084209091529082529020548156fea165627a7a7230582080bf7f429f870e102fa70b2cd46cc977bc3a098f9a10970ee06f53a1c0704bb10029",
    "source": "pragma solidity ^0.5.0;\r\n\r\ncontract ChocoToken {\r\n    string  public name = \"ChocoToken\";\r\n    string  public symbol = \"CTOK\";\r\n    string  public standard = \"ChocoToken v0.9\";\r\n    string public priceOfToken = \"€ 0.00008\";\r\n    uint256 public totalSupply = 100000000000;\r\n    uint8 public decimals = 0;\r\n\r\n    event Transfer(\r\n        address indexed _from,\r\n        address indexed _to,\r\n        uint256 _value\r\n    );\r\n\r\n    event Approval(\r\n        address indexed _owner,\r\n        address indexed _spender,\r\n        uint256 _value\r\n    );\r\n\r\n    mapping(address => uint256) public balanceOf;\r\n    mapping(address => mapping(address => uint256)) public allowance;\r\n\r\n    constructor() public {\r\n        balanceOf[msg.sender] = totalSupply;\r\n    }\r\n\r\n    function transfer(address _to, uint256 _value) public returns (bool success) {\r\n        require(balanceOf[msg.sender] >= _value);\r\n\r\n        balanceOf[msg.sender] -= _value;\r\n        balanceOf[_to] += _value;\r\n\r\n        emit Transfer(msg.sender, _to, _value);\r\n\r\n        return true;\r\n    }\r\n\r\n    function approve(address _spender, uint256 _value) public returns (bool success) {\r\n        allowance[msg.sender][_spender] = _value;\r\n\r\n        emit Approval(msg.sender, _spender, _value);\r\n\r\n        return true;\r\n    }\r\n\r\n    function transferFrom(address _from, address _to, uint256 _value) public returns (bool success) {\r\n        require(_value <= balanceOf[_from]);\r\n        require(_value <= allowance[_from][msg.sender]);\r\n\r\n        balanceOf[_from] -= _value;\r\n        balanceOf[_to] += _value;\r\n\r\n        allowance[_from][msg.sender] -= _value;\r\n\r\n        emit Transfer(_from, _to, _value);\r\n\r\n        return true;\r\n    }\r\n}\r\n",
    "sourcePath": "C:/Users/Choco/Repos/ChocoToken/contracts/ChocoToken.sol",
    "compiler": {
        "name": "solc",
        "version": "0.5.0+commit.1d4f565a.Emscripten.clang"
    },
    "schemaVersion": "3.0.3",
    "updatedAt": "2019-03-21T14:35:47.750Z",
    "devdoc": {
        "methods": {}
    },
    "userdoc": {
        "methods": {}
    }
}